{
  "contractName": "Voting",
  "abi": [
    {
      "inputs": [],
      "stateMutability": "nonpayable",
      "type": "constructor"
    },
    {
      "inputs": [
        {
          "internalType": "uint256",
          "name": "phoneNo",
          "type": "uint256"
        }
      ],
      "name": "isUser",
      "outputs": [
        {
          "internalType": "bool",
          "name": "",
          "type": "bool"
        }
      ],
      "stateMutability": "nonpayable",
      "type": "function"
    },
    {
      "inputs": [
        {
          "internalType": "uint256",
          "name": "phoneNo",
          "type": "uint256"
        },
        {
          "internalType": "string",
          "name": "name",
          "type": "string"
        },
        {
          "internalType": "string",
          "name": "email",
          "type": "string"
        }
      ],
      "name": "addUser",
      "outputs": [
        {
          "internalType": "bool",
          "name": "exisiting",
          "type": "bool"
        }
      ],
      "stateMutability": "nonpayable",
      "type": "function"
    },
    {
      "inputs": [
        {
          "internalType": "uint256",
          "name": "phoneNo",
          "type": "uint256"
        }
      ],
      "name": "getUser",
      "outputs": [
        {
          "components": [
            {
              "internalType": "string",
              "name": "name",
              "type": "string"
            },
            {
              "internalType": "string",
              "name": "email",
              "type": "string"
            },
            {
              "internalType": "uint256",
              "name": "index",
              "type": "uint256"
            }
          ],
          "internalType": "struct Voting.user",
          "name": "",
          "type": "tuple"
        }
      ],
      "stateMutability": "view",
      "type": "function",
      "constant": true
    },
    {
      "inputs": [
        {
          "internalType": "string",
          "name": "name",
          "type": "string"
        },
        {
          "internalType": "uint256",
          "name": "phoneNo",
          "type": "uint256"
        },
        {
          "components": [
            {
              "internalType": "uint256",
              "name": "candidateId",
              "type": "uint256"
            },
            {
              "internalType": "string",
              "name": "name",
              "type": "string"
            },
            {
              "internalType": "string",
              "name": "desc",
              "type": "string"
            },
            {
              "internalType": "uint256",
              "name": "voteCount",
              "type": "uint256"
            },
            {
              "internalType": "string",
              "name": "picture",
              "type": "string"
            }
          ],
          "internalType": "struct Voting.candidate[]",
          "name": "candidateList",
          "type": "tuple[]"
        },
        {
          "internalType": "uint256",
          "name": "startTime",
          "type": "uint256"
        },
        {
          "internalType": "uint256",
          "name": "endTime",
          "type": "uint256"
        }
      ],
      "name": "addPoll",
      "outputs": [
        {
          "internalType": "uint256",
          "name": "pollId",
          "type": "uint256"
        }
      ],
      "stateMutability": "nonpayable",
      "type": "function"
    },
    {
      "inputs": [
        {
          "internalType": "uint256",
          "name": "phoneNo",
          "type": "uint256"
        }
      ],
      "name": "getPolls",
      "outputs": [
        {
          "components": [
            {
              "internalType": "uint256",
              "name": "id",
              "type": "uint256"
            },
            {
              "internalType": "string",
              "name": "name",
              "type": "string"
            },
            {
              "internalType": "uint256",
              "name": "creatorUserId",
              "type": "uint256"
            },
            {
              "components": [
                {
                  "internalType": "uint256",
                  "name": "candidateId",
                  "type": "uint256"
                },
                {
                  "internalType": "string",
                  "name": "name",
                  "type": "string"
                },
                {
                  "internalType": "string",
                  "name": "desc",
                  "type": "string"
                },
                {
                  "internalType": "uint256",
                  "name": "voteCount",
                  "type": "uint256"
                },
                {
                  "internalType": "string",
                  "name": "picture",
                  "type": "string"
                }
              ],
              "internalType": "struct Voting.candidate[]",
              "name": "candidateList",
              "type": "tuple[]"
            },
            {
              "internalType": "uint256",
              "name": "startTime",
              "type": "uint256"
            },
            {
              "internalType": "uint256",
              "name": "endTime",
              "type": "uint256"
            },
            {
              "internalType": "uint256",
              "name": "winner",
              "type": "uint256"
            }
          ],
          "internalType": "struct Voting.poll[]",
          "name": "",
          "type": "tuple[]"
        }
      ],
      "stateMutability": "nonpayable",
      "type": "function"
    },
    {
      "inputs": [
        {
          "internalType": "uint256",
          "name": "phoneNo",
          "type": "uint256"
        },
        {
          "internalType": "uint256",
          "name": "pollId",
          "type": "uint256"
        }
      ],
      "name": "joinPoll",
      "outputs": [
        {
          "internalType": "bool",
          "name": "",
          "type": "bool"
        }
      ],
      "stateMutability": "nonpayable",
      "type": "function"
    },
    {
      "inputs": [
        {
          "internalType": "uint256",
          "name": "phoneNo",
          "type": "uint256"
        }
      ],
      "name": "joinedPollsList",
      "outputs": [
        {
          "components": [
            {
              "components": [
                {
                  "internalType": "uint256",
                  "name": "id",
                  "type": "uint256"
                },
                {
                  "internalType": "string",
                  "name": "name",
                  "type": "string"
                },
                {
                  "internalType": "uint256",
                  "name": "creatorUserId",
                  "type": "uint256"
                },
                {
                  "components": [
                    {
                      "internalType": "uint256",
                      "name": "candidateId",
                      "type": "uint256"
                    },
                    {
                      "internalType": "string",
                      "name": "name",
                      "type": "string"
                    },
                    {
                      "internalType": "string",
                      "name": "desc",
                      "type": "string"
                    },
                    {
                      "internalType": "uint256",
                      "name": "voteCount",
                      "type": "uint256"
                    },
                    {
                      "internalType": "string",
                      "name": "picture",
                      "type": "string"
                    }
                  ],
                  "internalType": "struct Voting.candidate[]",
                  "name": "candidateList",
                  "type": "tuple[]"
                },
                {
                  "internalType": "uint256",
                  "name": "startTime",
                  "type": "uint256"
                },
                {
                  "internalType": "uint256",
                  "name": "endTime",
                  "type": "uint256"
                },
                {
                  "internalType": "uint256",
                  "name": "winner",
                  "type": "uint256"
                }
              ],
              "internalType": "struct Voting.poll",
              "name": "p",
              "type": "tuple"
            },
            {
              "internalType": "bool",
              "name": "voted",
              "type": "bool"
            }
          ],
          "internalType": "struct Voting.joinedList[]",
          "name": "",
          "type": "tuple[]"
        }
      ],
      "stateMutability": "nonpayable",
      "type": "function"
    },
    {
      "inputs": [
        {
          "internalType": "uint256",
          "name": "phoneNo",
          "type": "uint256"
        },
        {
          "internalType": "uint256",
          "name": "pollId",
          "type": "uint256"
        },
        {
          "internalType": "uint256",
          "name": "candidateId",
          "type": "uint256"
        }
      ],
      "name": "vote",
      "outputs": [
        {
          "internalType": "bool",
          "name": "",
          "type": "bool"
        }
      ],
      "stateMutability": "nonpayable",
      "type": "function"
    }
  ],
  "bytecode": "0x608060405234801561001057600080fd5b506000600281905550611f82806100286000396000f3fe608060405234801561001057600080fd5b50600436106100885760003560e01c806384f3bcb61161005b57806384f3bcb61461014d5780638a6655d61461017d578063b0467deb146101ad578063ce2dee05146101dd57610088565b80630b787b9b1461008d57806318a9cc1b146100bd578063531d37a7146100ed5780635d1ecc5c1461011d575b600080fd5b6100a760048036038101906100a291906116f4565b61020d565b6040516100b49190611b8e565b60405180910390f35b6100d760048036038101906100d2919061164c565b6102ac565b6040516100e49190611b8e565b60405180910390f35b61010760048036038101906101029190611675565b610329565b6040516101149190611b8e565b60405180910390f35b6101376004803603810190610132919061164c565b610420565b6040516101449190611b4a565b60405180910390f35b610167600480360381019061016291906115a5565b610962565b6040516101749190611bcb565b60405180910390f35b61019760048036038101906101929190611730565b610b4a565b6040516101a49190611b8e565b60405180910390f35b6101c760048036038101906101c2919061164c565b610cdd565b6040516101d49190611ba9565b60405180910390f35b6101f760048036038101906101f2919061164c565b610e38565b6040516102049190611b6c565b60405180910390f35b6000600254821061022157600090506102a6565b6004600084815260200190815260200160002060405180604001604052808481526020016000151581525090806001815401808255809150506001900390600052602060002090600202016000909190919091506000820151816000015560208201518160010160006101000a81548160ff0219169083151502179055505050600190505b92915050565b60008060008054905014156102c45760009050610324565b816000600160008581526020019081526020016000206002015481548110610315577f4e487b7100000000000000000000000000000000000000000000000000000000600052603260045260246000fd5b90600052602060002001541490505b919050565b600060011515610338856102ac565b151514156103495760009050610419565b604051806060016040528084815260200183815260200160008152506001600086815260200190815260200160002060008201518160000190805190602001906103949291906112ae565b5060208201518160010190805190602001906103b19291906112ae565b5060408201518160020155905050600084908060018154018082558091505060019003906000526020600020016000909190919091505560016000805490506103fa9190611d90565b6001600086815260200190815260200160002060020181905550600190505b9392505050565b606060006004600084815260200190815260200160002080549050905060008167ffffffffffffffff81111561047f577f4e487b7100000000000000000000000000000000000000000000000000000000600052604160045260246000fd5b6040519080825280602002602001820160405280156104b857816020015b6104a5611334565b81526020019060019003908161049d5790505b50905060005b6004600086815260200190815260200160002080549050811015610957576003600060046000888152602001908152602001600020838154811061052b577f4e487b7100000000000000000000000000000000000000000000000000000000600052603260045260246000fd5b90600052602060002090600202016000015481526020019081526020016000206040518060e00160405290816000820154815260200160018201805461057090611e1c565b80601f016020809104026020016040519081016040528092919081815260200182805461059c90611e1c565b80156105e95780601f106105be576101008083540402835291602001916105e9565b820191906000526020600020905b8154815290600101906020018083116105cc57829003601f168201915b505050505081526020016002820154815260200160038201805480602002602001604051908101604052809291908181526020016000905b8282101561081d57838290600052602060002090600502016040518060a00160405290816000820154815260200160018201805461065e90611e1c565b80601f016020809104026020016040519081016040528092919081815260200182805461068a90611e1c565b80156106d75780601f106106ac576101008083540402835291602001916106d7565b820191906000526020600020905b8154815290600101906020018083116106ba57829003601f168201915b505050505081526020016002820180546106f090611e1c565b80601f016020809104026020016040519081016040528092919081815260200182805461071c90611e1c565b80156107695780601f1061073e57610100808354040283529160200191610769565b820191906000526020600020905b81548152906001019060200180831161074c57829003601f168201915b505050505081526020016003820154815260200160048201805461078c90611e1c565b80601f01602080910402602001604051908101604052809291908181526020018280546107b890611e1c565b80156108055780601f106107da57610100808354040283529160200191610805565b820191906000526020600020905b8154815290600101906020018083116107e857829003601f168201915b50505050508152505081526020019060010190610621565b505050508152602001600482015481526020016005820154815260200160068201548152505082828151811061087c577f4e487b7100000000000000000000000000000000000000000000000000000000600052603260045260246000fd5b6020026020010151600001819052506004600086815260200190815260200160002081815481106108d6577f4e487b7100000000000000000000000000000000000000000000000000000000600052603260045260246000fd5b906000526020600020906002020160010160009054906101000a900460ff1682828151811061092e577f4e487b7100000000000000000000000000000000000000000000000000000000600052603260045260246000fd5b60200260200101516020019015159081151581525050808061094f90611e4e565b9150506104be565b508092505050919050565b6000600254600360006002548152602001908152602001600020600001819055508560036000600254815260200190815260200160002060010190805190602001906109af9291906112ae565b50846003600060025481526020019081526020016000206002018190555060005b8451811015610adb57600360006002548152602001908152602001600020600301858281518110610a2a577f4e487b7100000000000000000000000000000000000000000000000000000000600052603260045260246000fd5b60200260200101519080600181540180825580915050600190039060005260206000209060050201600090919091909150600082015181600001556020820151816001019080519060200190610a819291906112ae565b506040820151816002019080519060200190610a9e9291906112ae565b50606082015181600301556080820151816004019080519060200190610ac59291906112ae565b5050508080610ad390611e4e565b9150506109d0565b5082600360006002548152602001908152602001600020600401819055508160036000600254815260200190815260200160002060050181905550600160026000828254610b299190611d3a565b925050819055506001600254610b3f9190611d90565b905095945050505050565b60006001600360008581526020019081526020016000206003018381548110610b9c577f4e487b7100000000000000000000000000000000000000000000000000000000600052603260045260246000fd5b90600052602060002090600502016003016000828254610bbc9190611d3a565b9250508190555060005b6004600086815260200190815260200160002080549050811015610cd15783600460008781526020019081526020016000208281548110610c30577f4e487b7100000000000000000000000000000000000000000000000000000000600052603260045260246000fd5b9060005260206000209060020201600001541415610cbe576001600460008781526020019081526020016000208281548110610c95577f4e487b7100000000000000000000000000000000000000000000000000000000600052603260045260246000fd5b906000526020600020906002020160010160006101000a81548160ff0219169083151502179055505b8080610cc990611e4e565b915050610bc6565b50600190509392505050565b610ce5611356565b60016000838152602001908152602001600020604051806060016040529081600082018054610d1390611e1c565b80601f0160208091040260200160405190810160405280929190818152602001828054610d3f90611e1c565b8015610d8c5780601f10610d6157610100808354040283529160200191610d8c565b820191906000526020600020905b815481529060010190602001808311610d6f57829003601f168201915b50505050508152602001600182018054610da590611e1c565b80601f0160208091040260200160405190810160405280929190818152602001828054610dd190611e1c565b8015610e1e5780601f10610df357610100808354040283529160200191610e1e565b820191906000526020600020905b815481529060010190602001808311610e0157829003601f168201915b505050505081526020016002820154815250509050919050565b60606000805b600254811015610e88578360036000838152602001908152602001600020600201541415610e75578180610e7190611e4e565b9250505b8080610e8090611e4e565b915050610e3e565b5060008167ffffffffffffffff811115610ecb577f4e487b7100000000000000000000000000000000000000000000000000000000600052604160045260246000fd5b604051908082528060200260200182016040528015610f0457816020015b610ef1611377565b815260200190600190039081610ee95790505b5090506000805b6002548110156112a257856003600083815260200190815260200160002060020154141561128f57600360008281526020019081526020016000206040518060e001604052908160008201548152602001600182018054610f6b90611e1c565b80601f0160208091040260200160405190810160405280929190818152602001828054610f9790611e1c565b8015610fe45780601f10610fb957610100808354040283529160200191610fe4565b820191906000526020600020905b815481529060010190602001808311610fc757829003601f168201915b505050505081526020016002820154815260200160038201805480602002602001604051908101604052809291908181526020016000905b8282101561121857838290600052602060002090600502016040518060a00160405290816000820154815260200160018201805461105990611e1c565b80601f016020809104026020016040519081016040528092919081815260200182805461108590611e1c565b80156110d25780601f106110a7576101008083540402835291602001916110d2565b820191906000526020600020905b8154815290600101906020018083116110b557829003601f168201915b505050505081526020016002820180546110eb90611e1c565b80601f016020809104026020016040519081016040528092919081815260200182805461111790611e1c565b80156111645780601f1061113957610100808354040283529160200191611164565b820191906000526020600020905b81548152906001019060200180831161114757829003601f168201915b505050505081526020016003820154815260200160048201805461118790611e1c565b80601f01602080910402602001604051908101604052809291908181526020018280546111b390611e1c565b80156112005780601f106111d557610100808354040283529160200191611200565b820191906000526020600020905b8154815290600101906020018083116111e357829003601f168201915b5050505050815250508152602001906001019061101c565b505050508152602001600482015481526020016005820154815260200160068201548152505083838061124a90611e4e565b945081518110611283577f4e487b7100000000000000000000000000000000000000000000000000000000600052603260045260246000fd5b60200260200101819052505b808061129a90611e4e565b915050610f0b565b50819350505050919050565b8280546112ba90611e1c565b90600052602060002090601f0160209004810192826112dc5760008555611323565b82601f106112f557805160ff1916838001178555611323565b82800160010185558215611323579182015b82811115611322578251825591602001919060010190611307565b5b50905061133091906113b4565b5090565b6040518060400160405280611347611377565b81526020016000151581525090565b60405180606001604052806060815260200160608152602001600081525090565b6040518060e00160405280600081526020016060815260200160008152602001606081526020016000815260200160008152602001600081525090565b5b808211156113cd5760008160009055506001016113b5565b5090565b60006113e46113df84611c17565b611be6565b9050808382526020820190508260005b85811015611424578135850161140a88826114c0565b8452602084019350602083019250506001810190506113f4565b5050509392505050565b600061144161143c84611c43565b611be6565b90508281526020810184848401111561145957600080fd5b611464848285611dda565b509392505050565b600082601f83011261147d57600080fd5b813561148d8482602086016113d1565b91505092915050565b600082601f8301126114a757600080fd5b81356114b784826020860161142e565b91505092915050565b600060a082840312156114d257600080fd5b6114dc60a0611be6565b905060006114ec84828501611590565b600083015250602082013567ffffffffffffffff81111561150c57600080fd5b61151884828501611496565b602083015250604082013567ffffffffffffffff81111561153857600080fd5b61154484828501611496565b604083015250606061155884828501611590565b606083015250608082013567ffffffffffffffff81111561157857600080fd5b61158484828501611496565b60808301525092915050565b60008135905061159f81611f35565b92915050565b600080600080600060a086880312156115bd57600080fd5b600086013567ffffffffffffffff8111156115d757600080fd5b6115e388828901611496565b95505060206115f488828901611590565b945050604086013567ffffffffffffffff81111561161157600080fd5b61161d8882890161146c565b935050606061162e88828901611590565b925050608061163f88828901611590565b9150509295509295909350565b60006020828403121561165e57600080fd5b600061166c84828501611590565b91505092915050565b60008060006060848603121561168a57600080fd5b600061169886828701611590565b935050602084013567ffffffffffffffff8111156116b557600080fd5b6116c186828701611496565b925050604084013567ffffffffffffffff8111156116de57600080fd5b6116ea86828701611496565b9150509250925092565b6000806040838503121561170757600080fd5b600061171585828601611590565b925050602061172685828601611590565b9150509250929050565b60008060006060848603121561174557600080fd5b600061175386828701611590565b935050602061176486828701611590565b925050604061177586828701611590565b9150509250925092565b600061178b8383611971565b905092915050565b600061179f83836119f5565b905092915050565b60006117b38383611a32565b905092915050565b60006117c682611ca3565b6117d08185611cf6565b9350836020820285016117e285611c73565b8060005b8581101561181e57848403895281516117ff858261177f565b945061180a83611ccf565b925060208a019950506001810190506117e6565b50829750879550505050505092915050565b600061183b82611cae565b6118458185611d07565b93508360208202850161185785611c83565b8060005b8581101561189357848403895281516118748582611793565b945061187f83611cdc565b925060208a0199505060018101905061185b565b50829750879550505050505092915050565b60006118b082611cb9565b6118ba8185611d18565b9350836020820285016118cc85611c93565b8060005b8581101561190857848403895281516118e985826117a7565b94506118f483611ce9565b925060208a019950506001810190506118d0565b50829750879550505050505092915050565b61192381611dc4565b82525050565b61193281611dc4565b82525050565b600061194382611cc4565b61194d8185611d29565b935061195d818560208601611de9565b61196681611f24565b840191505092915050565b600060a0830160008301516119896000860182611b2c565b50602083015184820360208601526119a18282611938565b915050604083015184820360408601526119bb8282611938565b91505060608301516119d06060860182611b2c565b50608083015184820360808601526119e88282611938565b9150508091505092915050565b60006040830160008301518482036000860152611a128282611a32565b9150506020830151611a27602086018261191a565b508091505092915050565b600060e083016000830151611a4a6000860182611b2c565b5060208301518482036020860152611a628282611938565b9150506040830151611a776040860182611b2c565b5060608301518482036060860152611a8f82826117bb565b9150506080830151611aa46080860182611b2c565b5060a0830151611ab760a0860182611b2c565b5060c0830151611aca60c0860182611b2c565b508091505092915050565b60006060830160008301518482036000860152611af28282611938565b91505060208301518482036020860152611b0c8282611938565b9150506040830151611b216040860182611b2c565b508091505092915050565b611b3581611dd0565b82525050565b611b4481611dd0565b82525050565b60006020820190508181036000830152611b648184611830565b905092915050565b60006020820190508181036000830152611b8681846118a5565b905092915050565b6000602082019050611ba36000830184611929565b92915050565b60006020820190508181036000830152611bc38184611ad5565b905092915050565b6000602082019050611be06000830184611b3b565b92915050565b6000604051905081810181811067ffffffffffffffff82111715611c0d57611c0c611ef5565b5b8060405250919050565b600067ffffffffffffffff821115611c3257611c31611ef5565b5b602082029050602081019050919050565b600067ffffffffffffffff821115611c5e57611c5d611ef5565b5b601f19601f8301169050602081019050919050565b6000819050602082019050919050565b6000819050602082019050919050565b6000819050602082019050919050565b600081519050919050565b600081519050919050565b600081519050919050565b600081519050919050565b6000602082019050919050565b6000602082019050919050565b6000602082019050919050565b600082825260208201905092915050565b600082825260208201905092915050565b600082825260208201905092915050565b600082825260208201905092915050565b6000611d4582611dd0565b9150611d5083611dd0565b9250827fffffffffffffffffffffffffffffffffffffffffffffffffffffffffffffffff03821115611d8557611d84611e97565b5b828201905092915050565b6000611d9b82611dd0565b9150611da683611dd0565b925082821015611db957611db8611e97565b5b828203905092915050565b60008115159050919050565b6000819050919050565b82818337600083830152505050565b60005b83811015611e07578082015181840152602081019050611dec565b83811115611e16576000848401525b50505050565b60006002820490506001821680611e3457607f821691505b60208210811415611e4857611e47611ec6565b5b50919050565b6000611e5982611dd0565b91507fffffffffffffffffffffffffffffffffffffffffffffffffffffffffffffffff821415611e8c57611e8b611e97565b5b600182019050919050565b7f4e487b7100000000000000000000000000000000000000000000000000000000600052601160045260246000fd5b7f4e487b7100000000000000000000000000000000000000000000000000000000600052602260045260246000fd5b7f4e487b7100000000000000000000000000000000000000000000000000000000600052604160045260246000fd5b6000601f19601f8301169050919050565b611f3e81611dd0565b8114611f4957600080fd5b5056fea2646970667358221220e271a8be484ffbc4a26303758d21cd35c0eda670a7ff6befdf84881d8519101364736f6c63430008000033",
  "immutableReferences": {},
  "source": "pragma solidity ^0.8.0;\n\ncontract Voting {\n    //users details\n    struct user {\n        string name;\n        string email;\n        uint256 index;\n    }\n\n    uint256[] private userIndex;\n\n    mapping(uint256 => user) userList;\n\n    function isUser(uint256 phoneNo) public returns (bool) {\n        if (userIndex.length == 0) return false;\n        return (userIndex[userList[phoneNo].index] == phoneNo);\n    }\n\n    function addUser(\n        uint256 phoneNo,\n        string memory name,\n        string memory email\n    ) public returns (bool exisiting) {\n        if (isUser(phoneNo) == true) return false;\n        userList[phoneNo] = user(name, email, 0);\n        userIndex.push(phoneNo);\n        userList[phoneNo].index = userIndex.length - 1;\n        return true;\n    }\n\n    function getUser(uint256 phoneNo) public view returns (user memory) {\n        return userList[phoneNo];\n    }\n\n    // Candidate\n    struct candidate {\n        uint256 candidateId;\n        string name;\n        string desc;\n        uint256 voteCount;\n        string picture;\n    }\n\n    // Polls\n    struct poll {\n        uint256 id;\n        string name;\n        uint256 creatorUserId;\n        candidate[] candidateList;\n        uint256 startTime;\n        uint256 endTime;\n        uint256 winner;\n    }\n\n    // To generate a poll id\n    uint256 numberOfPolls;\n\n    constructor() public {\n        numberOfPolls = 0;\n    }\n\n    mapping(uint256 => poll) pollList;\n\n    // Create poll function\n    function addPoll(\n        string memory name,\n        uint256 phoneNo,\n        candidate[] memory candidateList,\n        uint256 startTime,\n        uint256 endTime\n    ) public returns (uint256 pollId) {\n        pollList[numberOfPolls].id = numberOfPolls;\n        pollList[numberOfPolls].name = name;\n        pollList[numberOfPolls].creatorUserId = phoneNo;\n        for (uint256 i = 0; i < candidateList.length; i++)\n            pollList[numberOfPolls].candidateList.push(candidateList[i]);\n\n        pollList[numberOfPolls].startTime = startTime;\n        pollList[numberOfPolls].endTime = endTime;\n\n        numberOfPolls += 1;\n        return numberOfPolls - 1;\n    }\n\n    // Get polls created by this user\n    function getPolls(uint256 phoneNo) public returns (poll[] memory) {\n        uint256 count = 0;\n        for (uint256 x = 0; x < numberOfPolls; x++) {\n            if (pollList[x].creatorUserId == phoneNo) count++;\n        }\n\n        poll[] memory userPollList = new poll[](count);\n        uint256 temp = 0;\n        for (uint256 x = 0; x < numberOfPolls; x++) {\n            if (pollList[x].creatorUserId == phoneNo)\n                userPollList[temp++] = pollList[x];\n        }\n\n        return userPollList;\n    }\n\n    //Joined polls\n    struct pollVoted {\n        uint256 pollId;\n        bool voted;\n    }\n\n    mapping(uint256 => pollVoted[]) joinedPolls;\n\n    function joinPoll(uint256 phoneNo, uint256 pollId) public returns (bool) {\n        if (pollId >= numberOfPolls) {\n            return false;\n        }\n        joinedPolls[phoneNo].push(pollVoted(pollId, false));\n        return true;\n    }\n\n    //to get the list of polls joined\n    struct joinedList {\n        poll p;\n        bool voted;\n    }\n\n    function joinedPollsList(uint256 phoneNo)\n        public\n        returns (joinedList[] memory)\n    {\n        uint256 len = joinedPolls[phoneNo].length;\n        joinedList[] memory pollsList = new joinedList[](len);\n        for (uint256 x = 0; x < joinedPolls[phoneNo].length; x++) {\n            pollsList[x].p = pollList[joinedPolls[phoneNo][x].pollId];\n            pollsList[x].voted = joinedPolls[phoneNo][x].voted;\n        }\n\n        return pollsList;\n    }\n\n    function vote(\n        uint256 phoneNo,\n        uint256 pollId,\n        uint256 candidateId\n    ) public returns (bool) {\n        pollList[pollId].candidateList[candidateId].voteCount += 1;\n\n        for (uint256 x = 0; x < joinedPolls[phoneNo].length; x++) {\n            if (joinedPolls[phoneNo][x].pollId == pollId) {\n                joinedPolls[phoneNo][x].voted = true;\n            }\n        }\n\n        return true;\n    }\n}\n",
  "sourcePath": "/Users/tarun/Documents/GitHub/vote-io/backend/backend-api/contracts/Voting.sol",
  "compiler": {
    "name": "solc",
    "version": "0.8.0+commit.c7dfd78e.Emscripten.clang"
  },
  "schemaVersion": "3.4.7",
  "updatedAt": "2022-06-15T08:08:01.494Z",
  "networkType": "ethereum",
  "devdoc": {
    "kind": "dev",
    "methods": {},
    "version": 1
  },
  "userdoc": {
    "kind": "user",
    "methods": {},
    "version": 1
  }
}