{
  "contractName": "Voting",
  "abi": [
    {
      "inputs": [],
      "stateMutability": "nonpayable",
      "type": "constructor"
    },
    {
      "inputs": [
        {
          "internalType": "uint256",
          "name": "phoneNo",
          "type": "uint256"
        }
      ],
      "name": "isUser",
      "outputs": [
        {
          "internalType": "bool",
          "name": "",
          "type": "bool"
        }
      ],
      "stateMutability": "nonpayable",
      "type": "function"
    },
    {
      "inputs": [
        {
          "internalType": "uint256",
          "name": "phoneNo",
          "type": "uint256"
        },
        {
          "internalType": "string",
          "name": "name",
          "type": "string"
        },
        {
          "internalType": "string",
          "name": "email",
          "type": "string"
        }
      ],
      "name": "addUser",
      "outputs": [
        {
          "internalType": "bool",
          "name": "exisiting",
          "type": "bool"
        }
      ],
      "stateMutability": "nonpayable",
      "type": "function"
    },
    {
      "inputs": [
        {
          "internalType": "uint256",
          "name": "phoneNo",
          "type": "uint256"
        }
      ],
      "name": "getUser",
      "outputs": [
        {
          "components": [
            {
              "internalType": "string",
              "name": "name",
              "type": "string"
            },
            {
              "internalType": "string",
              "name": "email",
              "type": "string"
            },
            {
              "internalType": "uint256",
              "name": "index",
              "type": "uint256"
            }
          ],
          "internalType": "struct Voting.user",
          "name": "",
          "type": "tuple"
        }
      ],
      "stateMutability": "view",
      "type": "function",
      "constant": true
    },
    {
      "inputs": [
        {
          "internalType": "string",
          "name": "name",
          "type": "string"
        },
        {
          "internalType": "uint256",
          "name": "phoneNo",
          "type": "uint256"
        },
        {
          "components": [
            {
              "internalType": "uint256",
              "name": "candidateId",
              "type": "uint256"
            },
            {
              "internalType": "string",
              "name": "name",
              "type": "string"
            },
            {
              "internalType": "string",
              "name": "desc",
              "type": "string"
            },
            {
              "internalType": "uint256",
              "name": "voteCount",
              "type": "uint256"
            },
            {
              "internalType": "string",
              "name": "picture",
              "type": "string"
            }
          ],
          "internalType": "struct Voting.candidate[]",
          "name": "candidateList",
          "type": "tuple[]"
        },
        {
          "internalType": "uint256",
          "name": "startTime",
          "type": "uint256"
        },
        {
          "internalType": "uint256",
          "name": "endTime",
          "type": "uint256"
        }
      ],
      "name": "addPoll",
      "outputs": [
        {
          "internalType": "bool",
          "name": "success",
          "type": "bool"
        }
      ],
      "stateMutability": "nonpayable",
      "type": "function"
    },
    {
      "inputs": [
        {
          "internalType": "uint256",
          "name": "phoneNo",
          "type": "uint256"
        }
      ],
      "name": "getPolls",
      "outputs": [
        {
          "components": [
            {
              "internalType": "uint256",
              "name": "id",
              "type": "uint256"
            },
            {
              "internalType": "string",
              "name": "name",
              "type": "string"
            },
            {
              "internalType": "uint256",
              "name": "creatorUserId",
              "type": "uint256"
            },
            {
              "components": [
                {
                  "internalType": "uint256",
                  "name": "candidateId",
                  "type": "uint256"
                },
                {
                  "internalType": "string",
                  "name": "name",
                  "type": "string"
                },
                {
                  "internalType": "string",
                  "name": "desc",
                  "type": "string"
                },
                {
                  "internalType": "uint256",
                  "name": "voteCount",
                  "type": "uint256"
                },
                {
                  "internalType": "string",
                  "name": "picture",
                  "type": "string"
                }
              ],
              "internalType": "struct Voting.candidate[]",
              "name": "candidateList",
              "type": "tuple[]"
            },
            {
              "internalType": "uint256",
              "name": "startTime",
              "type": "uint256"
            },
            {
              "internalType": "uint256",
              "name": "endTime",
              "type": "uint256"
            },
            {
              "internalType": "uint256",
              "name": "winner",
              "type": "uint256"
            }
          ],
          "internalType": "struct Voting.poll[]",
          "name": "",
          "type": "tuple[]"
        }
      ],
      "stateMutability": "nonpayable",
      "type": "function"
    },
    {
      "inputs": [
        {
          "internalType": "uint256",
          "name": "phoneNo",
          "type": "uint256"
        },
        {
          "internalType": "uint256",
          "name": "pollId",
          "type": "uint256"
        }
      ],
      "name": "joinPoll",
      "outputs": [],
      "stateMutability": "nonpayable",
      "type": "function"
    },
    {
      "inputs": [
        {
          "internalType": "uint256",
          "name": "phoneNo",
          "type": "uint256"
        }
      ],
      "name": "joinedPollsList",
      "outputs": [
        {
          "components": [
            {
              "components": [
                {
                  "internalType": "uint256",
                  "name": "id",
                  "type": "uint256"
                },
                {
                  "internalType": "string",
                  "name": "name",
                  "type": "string"
                },
                {
                  "internalType": "uint256",
                  "name": "creatorUserId",
                  "type": "uint256"
                },
                {
                  "components": [
                    {
                      "internalType": "uint256",
                      "name": "candidateId",
                      "type": "uint256"
                    },
                    {
                      "internalType": "string",
                      "name": "name",
                      "type": "string"
                    },
                    {
                      "internalType": "string",
                      "name": "desc",
                      "type": "string"
                    },
                    {
                      "internalType": "uint256",
                      "name": "voteCount",
                      "type": "uint256"
                    },
                    {
                      "internalType": "string",
                      "name": "picture",
                      "type": "string"
                    }
                  ],
                  "internalType": "struct Voting.candidate[]",
                  "name": "candidateList",
                  "type": "tuple[]"
                },
                {
                  "internalType": "uint256",
                  "name": "startTime",
                  "type": "uint256"
                },
                {
                  "internalType": "uint256",
                  "name": "endTime",
                  "type": "uint256"
                },
                {
                  "internalType": "uint256",
                  "name": "winner",
                  "type": "uint256"
                }
              ],
              "internalType": "struct Voting.poll",
              "name": "p",
              "type": "tuple"
            },
            {
              "internalType": "bool",
              "name": "voted",
              "type": "bool"
            }
          ],
          "internalType": "struct Voting.joinedList[]",
          "name": "",
          "type": "tuple[]"
        }
      ],
      "stateMutability": "nonpayable",
      "type": "function"
    },
    {
      "inputs": [
        {
          "internalType": "uint256",
          "name": "phoneNo",
          "type": "uint256"
        },
        {
          "internalType": "uint256",
          "name": "pollId",
          "type": "uint256"
        },
        {
          "internalType": "uint256",
          "name": "candidateId",
          "type": "uint256"
        }
      ],
      "name": "vote",
      "outputs": [
        {
          "internalType": "bool",
          "name": "",
          "type": "bool"
        }
      ],
      "stateMutability": "nonpayable",
      "type": "function"
    }
  ],
  "bytecode": "0x608060405234801561001057600080fd5b506000600281905550611f1c806100286000396000f3fe608060405234801561001057600080fd5b50600436106100885760003560e01c806384f3bcb61161005b57806384f3bcb6146101395780638a6655d614610169578063b0467deb14610199578063ce2dee05146101c957610088565b80630b787b9b1461008d57806318a9cc1b146100a9578063531d37a7146100d95780635d1ecc5c14610109575b600080fd5b6100a760048036038101906100a291906116b8565b6101f9565b005b6100c360048036038101906100be9190611610565b61027d565b6040516100d09190611b43565b60405180910390f35b6100f360048036038101906100ee9190611639565b6102fa565b6040516101009190611b43565b60405180910390f35b610123600480360381019061011e9190611610565b6103f1565b6040516101309190611aff565b60405180910390f35b610153600480360381019061014e9190611569565b610933565b6040516101609190611b43565b60405180910390f35b610183600480360381019061017e91906116f4565b610b0e565b6040516101909190611b43565b60405180910390f35b6101b360048036038101906101ae9190611610565b610ca1565b6040516101c09190611b5e565b60405180910390f35b6101e360048036038101906101de9190611610565b610dfc565b6040516101f09190611b21565b60405180910390f35b6004600083815260200190815260200160002060405180604001604052808381526020016000151581525090806001815401808255809150506001900390600052602060002090600202016000909190919091506000820151816000015560208201518160010160006101000a81548160ff02191690831515021790555050505050565b600080600080549050141561029557600090506102f5565b8160006001600085815260200190815260200160002060020154815481106102e6577f4e487b7100000000000000000000000000000000000000000000000000000000600052603260045260246000fd5b90600052602060002001541490505b919050565b6000600115156103098561027d565b1515141561031a57600090506103ea565b60405180606001604052808481526020018381526020016000815250600160008681526020019081526020016000206000820151816000019080519060200190610365929190611272565b506020820151816001019080519060200190610382929190611272565b5060408201518160020155905050600084908060018154018082558091505060019003906000526020600020016000909190919091505560016000805490506103cb9190611d2a565b6001600086815260200190815260200160002060020181905550600190505b9392505050565b606060006004600084815260200190815260200160002080549050905060008167ffffffffffffffff811115610450577f4e487b7100000000000000000000000000000000000000000000000000000000600052604160045260246000fd5b60405190808252806020026020018201604052801561048957816020015b6104766112f8565b81526020019060019003908161046e5790505b50905060005b600460008681526020019081526020016000208054905081101561092857600360006004600088815260200190815260200160002083815481106104fc577f4e487b7100000000000000000000000000000000000000000000000000000000600052603260045260246000fd5b90600052602060002090600202016000015481526020019081526020016000206040518060e00160405290816000820154815260200160018201805461054190611db6565b80601f016020809104026020016040519081016040528092919081815260200182805461056d90611db6565b80156105ba5780601f1061058f576101008083540402835291602001916105ba565b820191906000526020600020905b81548152906001019060200180831161059d57829003601f168201915b505050505081526020016002820154815260200160038201805480602002602001604051908101604052809291908181526020016000905b828210156107ee57838290600052602060002090600502016040518060a00160405290816000820154815260200160018201805461062f90611db6565b80601f016020809104026020016040519081016040528092919081815260200182805461065b90611db6565b80156106a85780601f1061067d576101008083540402835291602001916106a8565b820191906000526020600020905b81548152906001019060200180831161068b57829003601f168201915b505050505081526020016002820180546106c190611db6565b80601f01602080910402602001604051908101604052809291908181526020018280546106ed90611db6565b801561073a5780601f1061070f5761010080835404028352916020019161073a565b820191906000526020600020905b81548152906001019060200180831161071d57829003601f168201915b505050505081526020016003820154815260200160048201805461075d90611db6565b80601f016020809104026020016040519081016040528092919081815260200182805461078990611db6565b80156107d65780601f106107ab576101008083540402835291602001916107d6565b820191906000526020600020905b8154815290600101906020018083116107b957829003601f168201915b505050505081525050815260200190600101906105f2565b505050508152602001600482015481526020016005820154815260200160068201548152505082828151811061084d577f4e487b7100000000000000000000000000000000000000000000000000000000600052603260045260246000fd5b6020026020010151600001819052506004600086815260200190815260200160002081815481106108a7577f4e487b7100000000000000000000000000000000000000000000000000000000600052603260045260246000fd5b906000526020600020906002020160010160009054906101000a900460ff168282815181106108ff577f4e487b7100000000000000000000000000000000000000000000000000000000600052603260045260246000fd5b60200260200101516020019015159081151581525050808061092090611de8565b91505061048f565b508092505050919050565b600060025460036000600254815260200190815260200160002060000181905550856003600060025481526020019081526020016000206001019080519060200190610980929190611272565b50846003600060025481526020019081526020016000206002018190555060005b8451811015610aac576003600060025481526020019081526020016000206003018582815181106109fb577f4e487b7100000000000000000000000000000000000000000000000000000000600052603260045260246000fd5b60200260200101519080600181540180825580915050600190039060005260206000209060050201600090919091909150600082015181600001556020820151816001019080519060200190610a52929190611272565b506040820151816002019080519060200190610a6f929190611272565b50606082015181600301556080820151816004019080519060200190610a96929190611272565b5050508080610aa490611de8565b9150506109a1565b5082600360006002548152602001908152602001600020600401819055508160036000600254815260200190815260200160002060050181905550600160026000828254610afa9190611cd4565b925050819055506001905095945050505050565b60006001600360008581526020019081526020016000206003018381548110610b60577f4e487b7100000000000000000000000000000000000000000000000000000000600052603260045260246000fd5b90600052602060002090600502016003016000828254610b809190611cd4565b9250508190555060005b6004600086815260200190815260200160002080549050811015610c955783600460008781526020019081526020016000208281548110610bf4577f4e487b7100000000000000000000000000000000000000000000000000000000600052603260045260246000fd5b9060005260206000209060020201600001541415610c82576001600460008781526020019081526020016000208281548110610c59577f4e487b7100000000000000000000000000000000000000000000000000000000600052603260045260246000fd5b906000526020600020906002020160010160006101000a81548160ff0219169083151502179055505b8080610c8d90611de8565b915050610b8a565b50600190509392505050565b610ca961131a565b60016000838152602001908152602001600020604051806060016040529081600082018054610cd790611db6565b80601f0160208091040260200160405190810160405280929190818152602001828054610d0390611db6565b8015610d505780601f10610d2557610100808354040283529160200191610d50565b820191906000526020600020905b815481529060010190602001808311610d3357829003601f168201915b50505050508152602001600182018054610d6990611db6565b80601f0160208091040260200160405190810160405280929190818152602001828054610d9590611db6565b8015610de25780601f10610db757610100808354040283529160200191610de2565b820191906000526020600020905b815481529060010190602001808311610dc557829003601f168201915b505050505081526020016002820154815250509050919050565b60606000805b600254811015610e4c578360036000838152602001908152602001600020600201541415610e39578180610e3590611de8565b9250505b8080610e4490611de8565b915050610e02565b5060008167ffffffffffffffff811115610e8f577f4e487b7100000000000000000000000000000000000000000000000000000000600052604160045260246000fd5b604051908082528060200260200182016040528015610ec857816020015b610eb561133b565b815260200190600190039081610ead5790505b5090506000805b60025481101561126657856003600083815260200190815260200160002060020154141561125357600360008281526020019081526020016000206040518060e001604052908160008201548152602001600182018054610f2f90611db6565b80601f0160208091040260200160405190810160405280929190818152602001828054610f5b90611db6565b8015610fa85780601f10610f7d57610100808354040283529160200191610fa8565b820191906000526020600020905b815481529060010190602001808311610f8b57829003601f168201915b505050505081526020016002820154815260200160038201805480602002602001604051908101604052809291908181526020016000905b828210156111dc57838290600052602060002090600502016040518060a00160405290816000820154815260200160018201805461101d90611db6565b80601f016020809104026020016040519081016040528092919081815260200182805461104990611db6565b80156110965780601f1061106b57610100808354040283529160200191611096565b820191906000526020600020905b81548152906001019060200180831161107957829003601f168201915b505050505081526020016002820180546110af90611db6565b80601f01602080910402602001604051908101604052809291908181526020018280546110db90611db6565b80156111285780601f106110fd57610100808354040283529160200191611128565b820191906000526020600020905b81548152906001019060200180831161110b57829003601f168201915b505050505081526020016003820154815260200160048201805461114b90611db6565b80601f016020809104026020016040519081016040528092919081815260200182805461117790611db6565b80156111c45780601f10611199576101008083540402835291602001916111c4565b820191906000526020600020905b8154815290600101906020018083116111a757829003601f168201915b50505050508152505081526020019060010190610fe0565b505050508152602001600482015481526020016005820154815260200160068201548152505083838061120e90611de8565b945081518110611247577f4e487b7100000000000000000000000000000000000000000000000000000000600052603260045260246000fd5b60200260200101819052505b808061125e90611de8565b915050610ecf565b50819350505050919050565b82805461127e90611db6565b90600052602060002090601f0160209004810192826112a057600085556112e7565b82601f106112b957805160ff19168380011785556112e7565b828001600101855582156112e7579182015b828111156112e65782518255916020019190600101906112cb565b5b5090506112f49190611378565b5090565b604051806040016040528061130b61133b565b81526020016000151581525090565b60405180606001604052806060815260200160608152602001600081525090565b6040518060e00160405280600081526020016060815260200160008152602001606081526020016000815260200160008152602001600081525090565b5b80821115611391576000816000905550600101611379565b5090565b60006113a86113a384611bb1565b611b80565b9050808382526020820190508260005b858110156113e857813585016113ce8882611484565b8452602084019350602083019250506001810190506113b8565b5050509392505050565b600061140561140084611bdd565b611b80565b90508281526020810184848401111561141d57600080fd5b611428848285611d74565b509392505050565b600082601f83011261144157600080fd5b8135611451848260208601611395565b91505092915050565b600082601f83011261146b57600080fd5b813561147b8482602086016113f2565b91505092915050565b600060a0828403121561149657600080fd5b6114a060a0611b80565b905060006114b084828501611554565b600083015250602082013567ffffffffffffffff8111156114d057600080fd5b6114dc8482850161145a565b602083015250604082013567ffffffffffffffff8111156114fc57600080fd5b6115088482850161145a565b604083015250606061151c84828501611554565b606083015250608082013567ffffffffffffffff81111561153c57600080fd5b6115488482850161145a565b60808301525092915050565b60008135905061156381611ecf565b92915050565b600080600080600060a0868803121561158157600080fd5b600086013567ffffffffffffffff81111561159b57600080fd5b6115a78882890161145a565b95505060206115b888828901611554565b945050604086013567ffffffffffffffff8111156115d557600080fd5b6115e188828901611430565b93505060606115f288828901611554565b925050608061160388828901611554565b9150509295509295909350565b60006020828403121561162257600080fd5b600061163084828501611554565b91505092915050565b60008060006060848603121561164e57600080fd5b600061165c86828701611554565b935050602084013567ffffffffffffffff81111561167957600080fd5b6116858682870161145a565b925050604084013567ffffffffffffffff8111156116a257600080fd5b6116ae8682870161145a565b9150509250925092565b600080604083850312156116cb57600080fd5b60006116d985828601611554565b92505060206116ea85828601611554565b9150509250929050565b60008060006060848603121561170957600080fd5b600061171786828701611554565b935050602061172886828701611554565b925050604061173986828701611554565b9150509250925092565b600061174f8383611935565b905092915050565b600061176383836119b9565b905092915050565b600061177783836119f6565b905092915050565b600061178a82611c3d565b6117948185611c90565b9350836020820285016117a685611c0d565b8060005b858110156117e257848403895281516117c38582611743565b94506117ce83611c69565b925060208a019950506001810190506117aa565b50829750879550505050505092915050565b60006117ff82611c48565b6118098185611ca1565b93508360208202850161181b85611c1d565b8060005b8581101561185757848403895281516118388582611757565b945061184383611c76565b925060208a0199505060018101905061181f565b50829750879550505050505092915050565b600061187482611c53565b61187e8185611cb2565b93508360208202850161189085611c2d565b8060005b858110156118cc57848403895281516118ad858261176b565b94506118b883611c83565b925060208a01995050600181019050611894565b50829750879550505050505092915050565b6118e781611d5e565b82525050565b6118f681611d5e565b82525050565b600061190782611c5e565b6119118185611cc3565b9350611921818560208601611d83565b61192a81611ebe565b840191505092915050565b600060a08301600083015161194d6000860182611af0565b506020830151848203602086015261196582826118fc565b9150506040830151848203604086015261197f82826118fc565b91505060608301516119946060860182611af0565b50608083015184820360808601526119ac82826118fc565b9150508091505092915050565b600060408301600083015184820360008601526119d682826119f6565b91505060208301516119eb60208601826118de565b508091505092915050565b600060e083016000830151611a0e6000860182611af0565b5060208301518482036020860152611a2682826118fc565b9150506040830151611a3b6040860182611af0565b5060608301518482036060860152611a53828261177f565b9150506080830151611a686080860182611af0565b5060a0830151611a7b60a0860182611af0565b5060c0830151611a8e60c0860182611af0565b508091505092915050565b60006060830160008301518482036000860152611ab682826118fc565b91505060208301518482036020860152611ad082826118fc565b9150506040830151611ae56040860182611af0565b508091505092915050565b611af981611d6a565b82525050565b60006020820190508181036000830152611b1981846117f4565b905092915050565b60006020820190508181036000830152611b3b8184611869565b905092915050565b6000602082019050611b5860008301846118ed565b92915050565b60006020820190508181036000830152611b788184611a99565b905092915050565b6000604051905081810181811067ffffffffffffffff82111715611ba757611ba6611e8f565b5b8060405250919050565b600067ffffffffffffffff821115611bcc57611bcb611e8f565b5b602082029050602081019050919050565b600067ffffffffffffffff821115611bf857611bf7611e8f565b5b601f19601f8301169050602081019050919050565b6000819050602082019050919050565b6000819050602082019050919050565b6000819050602082019050919050565b600081519050919050565b600081519050919050565b600081519050919050565b600081519050919050565b6000602082019050919050565b6000602082019050919050565b6000602082019050919050565b600082825260208201905092915050565b600082825260208201905092915050565b600082825260208201905092915050565b600082825260208201905092915050565b6000611cdf82611d6a565b9150611cea83611d6a565b9250827fffffffffffffffffffffffffffffffffffffffffffffffffffffffffffffffff03821115611d1f57611d1e611e31565b5b828201905092915050565b6000611d3582611d6a565b9150611d4083611d6a565b925082821015611d5357611d52611e31565b5b828203905092915050565b60008115159050919050565b6000819050919050565b82818337600083830152505050565b60005b83811015611da1578082015181840152602081019050611d86565b83811115611db0576000848401525b50505050565b60006002820490506001821680611dce57607f821691505b60208210811415611de257611de1611e60565b5b50919050565b6000611df382611d6a565b91507fffffffffffffffffffffffffffffffffffffffffffffffffffffffffffffffff821415611e2657611e25611e31565b5b600182019050919050565b7f4e487b7100000000000000000000000000000000000000000000000000000000600052601160045260246000fd5b7f4e487b7100000000000000000000000000000000000000000000000000000000600052602260045260246000fd5b7f4e487b7100000000000000000000000000000000000000000000000000000000600052604160045260246000fd5b6000601f19601f8301169050919050565b611ed881611d6a565b8114611ee357600080fd5b5056fea2646970667358221220423924a5bd0b93b1f424db95921503d9061823ba89f10bd80ccb57ae5463284e64736f6c63430008000033",
  "immutableReferences": {},
  "source": "pragma solidity ^0.8.0;\n\ncontract Voting {\n    //users details\n    struct user {\n        string name;\n        string email;\n        uint256 index;\n    }\n\n    uint256[] private userIndex;\n\n    mapping(uint256 => user) userList;\n\n    function isUser(uint256 phoneNo) public returns (bool) {\n        if (userIndex.length == 0) return false;\n        return (userIndex[userList[phoneNo].index] == phoneNo);\n    }\n\n    function addUser(\n        uint256 phoneNo,\n        string memory name,\n        string memory email\n    ) public returns (bool exisiting) {\n        if (isUser(phoneNo) == true) return false;\n        userList[phoneNo] = user(name, email, 0);\n        userIndex.push(phoneNo);\n        userList[phoneNo].index = userIndex.length - 1;\n        return true;\n    }\n\n    function getUser(uint256 phoneNo) public view returns (user memory) {\n        return userList[phoneNo];\n    }\n\n    // Candidate\n    struct candidate {\n        uint256 candidateId;\n        string name;\n        string desc;\n        uint256 voteCount;\n        string picture;\n    }\n\n    // Polls\n    struct poll {\n        uint256 id;\n        string name;\n        uint256 creatorUserId;\n        candidate[] candidateList;\n        uint256 startTime;\n        uint256 endTime;\n        uint256 winner;\n    }\n\n    // To generate a poll id\n    uint256 numberOfPolls;\n\n    constructor() public {\n        numberOfPolls = 0;\n    }\n\n    mapping(uint256 => poll) pollList;\n\n    // Create poll function\n    function addPoll(\n        string memory name,\n        uint256 phoneNo,\n        candidate[] memory candidateList,\n        uint256 startTime,\n        uint256 endTime\n    ) public returns (bool success) {\n        pollList[numberOfPolls].id = numberOfPolls;\n        pollList[numberOfPolls].name = name;\n        pollList[numberOfPolls].creatorUserId = phoneNo;\n        for (uint256 i = 0; i < candidateList.length; i++)\n            pollList[numberOfPolls].candidateList.push(candidateList[i]);\n\n        pollList[numberOfPolls].startTime = startTime;\n        pollList[numberOfPolls].endTime = endTime;\n\n        numberOfPolls += 1;\n        return true;\n    }\n\n    // Get polls created by this user\n    function getPolls(uint256 phoneNo) public returns (poll[] memory) {\n        uint256 count = 0;\n        for (uint256 x = 0; x < numberOfPolls; x++) {\n            if (pollList[x].creatorUserId == phoneNo) count++;\n        }\n\n        poll[] memory userPollList = new poll[](count);\n        uint256 temp = 0;\n        for (uint256 x = 0; x < numberOfPolls; x++) {\n            if (pollList[x].creatorUserId == phoneNo)\n                userPollList[temp++] = pollList[x];\n        }\n\n        return userPollList;\n    }\n\n    //Joined polls\n    struct pollVoted {\n        uint256 pollId;\n        bool voted;\n    }\n\n    mapping(uint256 => pollVoted[]) joinedPolls;\n\n    function joinPoll(uint256 phoneNo, uint256 pollId) public {\n        joinedPolls[phoneNo].push(pollVoted(pollId, false));\n    }\n\n    //to get the list of polls joined\n    struct joinedList{\n        poll p;\n        bool voted;\n    }\n\n    function joinedPollsList(uint256 phoneNo) public returns (joinedList [] memory ){\n        uint256 len = joinedPolls[phoneNo].length;\n        joinedList[] memory pollsList = new joinedList[](len);\n        for(uint256 x=0; x<joinedPolls[phoneNo].length;x++){\n            pollsList[x].p = pollList[joinedPolls[phoneNo][x].pollId];\n            pollsList[x].voted = joinedPolls[phoneNo][x].voted;\n        }\n\n        return pollsList;\n    }\n\n    function vote(uint256 phoneNo, uint256 pollId, uint256 candidateId) public returns (bool) {\n        pollList[pollId].candidateList[candidateId].voteCount += 1;\n\n        for(uint256 x=0; x<joinedPolls[phoneNo].length;x++){\n            if(joinedPolls[phoneNo][x].pollId==pollId){\n                joinedPolls[phoneNo][x].voted = true;\n            }\n        }\n\n        return true;\n    }\n}",
  "sourcePath": "/Users/tarun/Documents/GitHub/vote-io/backend/backend-api/contracts/Voting.sol",
  "compiler": {
    "name": "solc",
    "version": "0.8.0+commit.c7dfd78e.Emscripten.clang"
  },
  "schemaVersion": "3.4.7",
  "updatedAt": "2022-06-14T14:01:23.074Z",
  "networkType": "ethereum",
  "devdoc": {
    "kind": "dev",
    "methods": {},
    "version": 1
  },
  "userdoc": {
    "kind": "user",
    "methods": {},
    "version": 1
  }
}