{
  "contractName": "Voting",
  "abi": [
    {
      "inputs": [
        {
          "internalType": "string",
          "name": "phoneNo",
          "type": "string"
        },
        {
          "internalType": "string",
          "name": "name",
          "type": "string"
        },
        {
          "internalType": "string",
          "name": "email",
          "type": "string"
        }
      ],
      "name": "addUser",
      "outputs": [],
      "stateMutability": "nonpayable",
      "type": "function"
    },
    {
      "inputs": [
        {
          "internalType": "string",
          "name": "phoneNo",
          "type": "string"
        }
      ],
      "name": "getUser",
      "outputs": [
        {
          "components": [
            {
              "internalType": "string",
              "name": "name",
              "type": "string"
            },
            {
              "internalType": "string",
              "name": "email",
              "type": "string"
            }
          ],
          "internalType": "struct Voting.User",
          "name": "",
          "type": "tuple"
        }
      ],
      "stateMutability": "view",
      "type": "function",
      "constant": true
    }
  ],
  "bytecode": "0x608060405234801561001057600080fd5b506106dd806100206000396000f3fe608060405234801561001057600080fd5b50600436106100365760003560e01c806331feb6711461003b57806395c5fed41461006b575b600080fd5b6100556004803603810190610050919061037d565b610087565b604051610062919061051a565b60405180910390f35b610085600480360381019061008091906103be565b6101e3565b005b61008f610258565b60008260405161009f9190610503565b90815260200160405180910390206040518060400160405290816000820180546100c890610606565b80601f01602080910402602001604051908101604052809291908181526020018280546100f490610606565b80156101415780601f1061011657610100808354040283529160200191610141565b820191906000526020600020905b81548152906001019060200180831161012457829003601f168201915b5050505050815260200160018201805461015a90610606565b80601f016020809104026020016040519081016040528092919081815260200182805461018690610606565b80156101d35780601f106101a8576101008083540402835291602001916101d3565b820191906000526020600020905b8154815290600101906020018083116101b657829003601f168201915b5050505050815250509050919050565b6040518060400160405280838152602001828152506000846040516102089190610503565b90815260200160405180910390206000820151816000019080519060200190610232929190610272565b50602082015181600101908051906020019061024f929190610272565b50905050505050565b604051806040016040528060608152602001606081525090565b82805461027e90610606565b90600052602060002090601f0160209004810192826102a057600085556102e7565b82601f106102b957805160ff19168380011785556102e7565b828001600101855582156102e7579182015b828111156102e65782518255916020019190600101906102cb565b5b5090506102f491906102f8565b5090565b5b808211156103115760008160009055506001016102f9565b5090565b60006103286103238461056d565b61053c565b90508281526020810184848401111561034057600080fd5b61034b8482856105c4565b509392505050565b600082601f83011261036457600080fd5b8135610374848260208601610315565b91505092915050565b60006020828403121561038f57600080fd5b600082013567ffffffffffffffff8111156103a957600080fd5b6103b584828501610353565b91505092915050565b6000806000606084860312156103d357600080fd5b600084013567ffffffffffffffff8111156103ed57600080fd5b6103f986828701610353565b935050602084013567ffffffffffffffff81111561041657600080fd5b61042286828701610353565b925050604084013567ffffffffffffffff81111561043f57600080fd5b61044b86828701610353565b9150509250925092565b60006104608261059d565b61046a81856105a8565b935061047a8185602086016105d3565b61048381610696565b840191505092915050565b60006104998261059d565b6104a381856105b9565b93506104b38185602086016105d3565b80840191505092915050565b600060408301600083015184820360008601526104dc8282610455565b915050602083015184820360208601526104f68282610455565b9150508091505092915050565b600061050f828461048e565b915081905092915050565b6000602082019050818103600083015261053481846104bf565b905092915050565b6000604051905081810181811067ffffffffffffffff8211171561056357610562610667565b5b8060405250919050565b600067ffffffffffffffff82111561058857610587610667565b5b601f19601f8301169050602081019050919050565b600081519050919050565b600082825260208201905092915050565b600081905092915050565b82818337600083830152505050565b60005b838110156105f15780820151818401526020810190506105d6565b83811115610600576000848401525b50505050565b6000600282049050600182168061061e57607f821691505b6020821081141561063257610631610638565b5b50919050565b7f4e487b7100000000000000000000000000000000000000000000000000000000600052602260045260246000fd5b7f4e487b7100000000000000000000000000000000000000000000000000000000600052604160045260246000fd5b6000601f19601f830116905091905056fea26469706673582212208cee1ec932b90e8188f6f2f08ebb586f1635a59e458b4982fd2e6cb9c677ec9e64736f6c63430008000033",
  "immutableReferences": {},
  "source": "pragma solidity ^0.8.0;\r\n\r\ncontract Voting {\r\n\r\n    //users details\r\n    struct User{\r\n        string name;\r\n        string email;\r\n    }\r\n\r\n    mapping(string => User) UserList;\r\n\r\n    function addUser(string memory phoneNo, string memory name, string memory email) public {\r\n        UserList[phoneNo] = User(name, email);\r\n    }\r\n\r\n    function getUser(string memory phoneNo) view public returns(User memory) {\r\n        return UserList[phoneNo];\r\n    }\r\n}\r\n\r\n//     //to store all the users\r\n//     user[] public user_list;\r\n\r\n//     // a candidate structure that stores basic data about a\r\n//     // candidate that stands for the election\r\n\r\n//     struct candidate {\r\n//         string name;\r\n//         uint256 votes;\r\n//     }\r\n\r\n//     candidate[] public candidate_list;\r\n\r\n//     // a voter structure that will store the details about the voter\r\n//     // includes: voted bool, verified bool,\r\n//     // IMP: do we store who the person's voted ror ?\r\n//     struct voter {\r\n//         bool voted;\r\n//         bool verified;\r\n//         bool exists;\r\n//     }\r\n\r\n//     mapping(address => voter) voter_list;\r\n\r\n//     // A constructor that init. the candidates\r\n//     constructor(string[] memory c_name) {\r\n//         for (uint256 i = 0; i < c_name.length; i++) {\r\n//             candidate memory temp;\r\n//             temp.name = c_name[i];\r\n//             temp.votes = 0;\r\n//             candidate_list.push(temp);\r\n//         }\r\n//     }\r\n\r\n//     // Bunch of useful functions\r\n\r\n//     // function that gets the candidates\r\n//     function getCandidates() public view returns (candidate[] memory) {\r\n//         return candidate_list;\r\n//     }\r\n\r\n//     // function that adds voters to the voter_list\r\n//     function add_voter(address v_address) public {\r\n//         require(!voter_list[v_address].exists, \"voter already exists\");\r\n//         voter memory temp;\r\n//         temp.voted = false;\r\n//         temp.verified = false;\r\n//         temp.exists = true;\r\n//         voter_list[v_address] = temp;\r\n//     }\r\n\r\n//     // function that verifies the voter\r\n//     function verify_voter(address v_address) public {\r\n//         require(voter_list[v_address].exists, \"voter dos not exist\");\r\n//         require(!voter_list[v_address].verified, \"already verified\");\r\n//         require(!voter_list[v_address].voted, \"already voted\");\r\n//         voter_list[v_address].verified = true;\r\n//     }\r\n\r\n//     // function to vote\r\n//     function vote(uint256 c_id) public {\r\n//         require(voter_list[msg.sender].verified, \"not verified\");\r\n//         require(!voter_list[msg.sender].voted, \"already voted\");\r\n//         voter_list[msg.sender].voted = true;\r\n//         candidate_list[c_id].votes += 1;\r\n//     }\r\n\r\n//     // function to get the results\r\n//     function get_results() public view returns (string memory winner) {\r\n//         uint256 maxVotes = 0;\r\n//         uint256 index;\r\n//         for (uint256 i = 0; i < candidate_list.length; i++) {\r\n//             if (candidate_list[i].votes > maxVotes) {\r\n//                 index = i;\r\n//             }\r\n//         }\r\n//         winner = candidate_list[index].name;\r\n//     }\r\n// }\r\n",
  "sourcePath": "C:\\Arjun\\vote-io\\backend-api\\contracts\\Voting.sol",
  "compiler": {
    "name": "solc",
    "version": "0.8.0+commit.c7dfd78e.Emscripten.clang"
  },
  "schemaVersion": "3.4.4",
  "updatedAt": "2022-06-12T09:16:54.743Z",
  "networkType": "ethereum",
  "devdoc": {
    "kind": "dev",
    "methods": {},
    "version": 1
  },
  "userdoc": {
    "kind": "user",
    "methods": {},
    "version": 1
  }
}